{
  "contractName": "PiggyBank",
  "abi": [
    {
      "constant": true,
      "inputs": [
        {
          "name": "",
          "type": "address"
        }
      ],
      "name": "accountsToBalances",
      "outputs": [
        {
          "name": "",
          "type": "uint256"
        }
      ],
      "payable": false,
      "stateMutability": "view",
      "type": "function"
    },
    {
      "constant": true,
      "inputs": [
        {
          "name": "",
          "type": "address"
        }
      ],
      "name": "accountsToGoals",
      "outputs": [
        {
          "name": "",
          "type": "uint256"
        }
      ],
      "payable": false,
      "stateMutability": "view",
      "type": "function"
    },
    {
      "constant": false,
      "inputs": [
        {
          "name": "_goal",
          "type": "uint256"
        }
      ],
      "name": "createPiggyBank",
      "outputs": [],
      "payable": false,
      "stateMutability": "nonpayable",
      "type": "function"
    },
    {
      "constant": false,
      "inputs": [],
      "name": "deposit",
      "outputs": [],
      "payable": true,
      "stateMutability": "payable",
      "type": "function"
    },
    {
      "constant": false,
      "inputs": [
        {
          "name": "_receiver",
          "type": "address"
        }
      ],
      "name": "withdraw",
      "outputs": [],
      "payable": false,
      "stateMutability": "nonpayable",
      "type": "function"
    },
    {
      "constant": true,
      "inputs": [],
      "name": "viewBalance",
      "outputs": [
        {
          "name": "",
          "type": "uint256"
        }
      ],
      "payable": false,
      "stateMutability": "view",
      "type": "function"
    },
    {
      "constant": true,
      "inputs": [],
      "name": "accountHasPiggy",
      "outputs": [
        {
          "name": "",
          "type": "bool"
        }
      ],
      "payable": false,
      "stateMutability": "view",
      "type": "function"
    }
  ],
  "bytecode": "0x608060405234801561001057600080fd5b506107b3806100206000396000f3fe608060405260043610610083576000357c0100000000000000000000000000000000000000000000000000000000900463ffffffff1680630f1c707f1461008857806325eaf4fe146100ed5780633ff1e05b1461011c5780634adc5fa31461014757806351cff8d91461018257806352c33b1c146101d3578063d0e30db014610238575b600080fd5b34801561009457600080fd5b506100d7600480360360208110156100ab57600080fd5b81019080803573ffffffffffffffffffffffffffffffffffffffff169060200190929190505050610242565b6040518082815260200191505060405180910390f35b3480156100f957600080fd5b5061010261025a565b604051808215151515815260200191505060405180910390f35b34801561012857600080fd5b506101316102a3565b6040518082815260200191505060405180910390f35b34801561015357600080fd5b506101806004803603602081101561016a57600080fd5b8101908080359060200190929190505050610337565b005b34801561018e57600080fd5b506101d1600480360360208110156101a557600080fd5b81019080803573ffffffffffffffffffffffffffffffffffffffff169060200190929190505050610460565b005b3480156101df57600080fd5b50610222600480360360208110156101f657600080fd5b81019080803573ffffffffffffffffffffffffffffffffffffffff16906020019092919050505061065a565b6040518082815260200191505060405180910390f35b610240610672565b005b60016020528060005260406000206000915090505481565b6000806000803373ffffffffffffffffffffffffffffffffffffffff1673ffffffffffffffffffffffffffffffffffffffff168152602001908152602001600020541415905090565b6000806000803373ffffffffffffffffffffffffffffffffffffffff1673ffffffffffffffffffffffffffffffffffffffff16815260200190815260200160002054141515156102f257600080fd5b600160003373ffffffffffffffffffffffffffffffffffffffff1673ffffffffffffffffffffffffffffffffffffffff16815260200190815260200160002054905090565b6000811115156103d5576040517f08c379a00000000000000000000000000000000000000000000000000000000081526004018080602001828103825260218152602001807f596f757220676f616c206d7573742062652067726561746572207468616e203081526020017f2e0000000000000000000000000000000000000000000000000000000000000081525060400191505060405180910390fd5b6000600160003373ffffffffffffffffffffffffffffffffffffffff1673ffffffffffffffffffffffffffffffffffffffff16815260200190815260200160002081905550806000803373ffffffffffffffffffffffffffffffffffffffff1673ffffffffffffffffffffffffffffffffffffffff1681526020019081526020016000208190555050565b60008060003373ffffffffffffffffffffffffffffffffffffffff1673ffffffffffffffffffffffffffffffffffffffff1681526020019081526020016000205490506000600160003373ffffffffffffffffffffffffffffffffffffffff1673ffffffffffffffffffffffffffffffffffffffff168152602001908152602001600020549050818110151515610585576040517f08c379a00000000000000000000000000000000000000000000000000000000081526004018080602001828103825260238152602001807f596f752068617665206e6f74207265616368656420796f757220676f616c207981526020017f65742e000000000000000000000000000000000000000000000000000000000081525060400191505060405180910390fd5b6000600160003373ffffffffffffffffffffffffffffffffffffffff1673ffffffffffffffffffffffffffffffffffffffff1681526020019081526020016000208190555060008060003373ffffffffffffffffffffffffffffffffffffffff1673ffffffffffffffffffffffffffffffffffffffff168152602001908152602001600020819055508273ffffffffffffffffffffffffffffffffffffffff166108fc829081150290604051600060405180830381858888f19350505050158015610654573d6000803e3d6000fd5b50505050565b60006020528060005260406000206000915090505481565b6000341115156106ea576040517f08c379a00000000000000000000000000000000000000000000000000000000081526004018080602001828103825260158152602001807f596f752063616e6e6f74206465706f73697420302e000000000000000000000081525060200191505060405180910390fd5b60008060003373ffffffffffffffffffffffffffffffffffffffff1673ffffffffffffffffffffffffffffffffffffffff168152602001908152602001600020541415151561073857600080fd5b34600160003373ffffffffffffffffffffffffffffffffffffffff1673ffffffffffffffffffffffffffffffffffffffff1681526020019081526020016000206000828254019250508190555056fea165627a7a72305820f06b91214175c3047c1ea7c482f318f1a49c79620c7b05195222d49bc265719f0029",
  "source": "pragma solidity ^0.5.0;\n\n/** @title Piggy Bank. */\ncontract PiggyBank {\n\n    mapping(address => uint256) public accountsToGoals;\n    mapping(address => uint256) public accountsToBalances;\n\n\n    /** @dev Creates a new piggy bank with a goal that must be reached before being able to withdraw.\n      * @param _goal Goal to be reached before being allowed to withdraw.\n      */\n    function createPiggyBank(uint256 _goal) public {\n        require(_goal > 0, \"Your goal must be greater than 0.\"); // make sure that specified goal is greater than 0.\n//        require(accountsToGoals[msg.sender] == 0, \"You must not have a piggy bank.\");\n        accountsToBalances[msg.sender] = 0;\n        accountsToGoals[msg.sender] = _goal;\n    }\n\n    /** @dev Deposits into sender's piggy bank, if it exists.\n      */\n    function deposit() external payable {\n        require(msg.value > 0, \"You cannot deposit 0.\"); // make sure that user is depositing more than 0.\n        require(accountsToGoals[msg.sender] != 0); // require sender to have a piggy bank.\n        accountsToBalances[msg.sender] += msg.value;\n    }\n\n    /** @dev Withdraws from sender's piggy bank and deposits that into a specified account.\n      * @param _receiver The account to deposit the withdrew money into.\n      */\n    function withdraw(address payable _receiver) external {\n        uint256 goal = accountsToGoals[msg.sender];\n        uint256 balance = accountsToBalances[msg.sender];\n\n        require(balance >= goal, \"You have not reached your goal yet.\"); // make sure that the goal has been reached.\n        accountsToBalances[msg.sender] = 0; // empties piggy bank\n        accountsToGoals[msg.sender] = 0; // destroys the piggy bank\n        _receiver.transfer(balance);\n    }\n\n    /** @dev Function to view the current balance in sender's piggy bank.\n      * @return Returns the current balance in sender's piggy bank.\n      */\n    function viewBalance() public view returns(uint256) {\n        require(accountsToGoals[msg.sender] != 0); // require sender to have a piggy bank\n        return accountsToBalances[msg.sender];\n    }\n\n    function accountHasPiggy() view public returns(bool){\n        return accountsToGoals[msg.sender] != 0;\n    }\n\n    //    function viewGoal() view public returns(uint256){\n    //        return accountsToGoals[msg.sender];\n    //    }\n\n}\n",
  "sourcePath": "/Users/kelvinfan/Projects/blockchain/decentral-bank/contract/contracts/PiggyBank.sol",
  "compiler": {
    "name": "solc",
    "version": "0.5.0+commit.1d4f565a.Emscripten.clang"
  },
  "schemaVersion": "3.0.0",
  "updatedAt": "2019-03-10T03:19:49.114Z",
  "devdoc": {
    "methods": {
      "createPiggyBank(uint256)": {
        "details": "Creates a new piggy bank with a goal that must be reached before being able to withdraw.",
        "params": {
          "_goal": "Goal to be reached before being allowed to withdraw."
        }
      },
      "deposit()": {
        "details": "Deposits into sender's piggy bank, if it exists."
      },
      "viewBalance()": {
        "details": "Function to view the current balance in sender's piggy bank.",
        "return": "Returns the current balance in sender's piggy bank."
      },
      "withdraw(address)": {
        "details": "Withdraws from sender's piggy bank and deposits that into a specified account.",
        "params": {
          "_receiver": "The account to deposit the withdrew money into."
        }
      }
    },
    "title": "Piggy Bank. "
  },
  "userdoc": {
    "methods": {}
  }
}