{
  "contractName": "PiggyBankFactory",
  "abi": [
    {
      "constant": true,
      "inputs": [
        {
          "name": "",
          "type": "uint256"
        }
      ],
      "name": "deployedPiggyBanks",
      "outputs": [
        {
          "name": "",
          "type": "address"
        }
      ],
      "payable": false,
      "stateMutability": "view",
      "type": "function"
    },
    {
      "constant": true,
      "inputs": [
        {
          "name": "",
          "type": "address"
        }
      ],
      "name": "existingPiggyBanks",
      "outputs": [
        {
          "name": "",
          "type": "address"
        }
      ],
      "payable": false,
      "stateMutability": "view",
      "type": "function"
    },
    {
      "constant": false,
      "inputs": [
        {
          "name": "_goal",
          "type": "uint256"
        }
      ],
      "name": "createPiggyBank",
      "outputs": [],
      "payable": false,
      "stateMutability": "nonpayable",
      "type": "function"
    },
    {
      "constant": false,
      "inputs": [
        {
          "name": "_to",
          "type": "address"
        }
      ],
      "name": "deposit",
      "outputs": [],
      "payable": false,
      "stateMutability": "nonpayable",
      "type": "function"
    }
  ],
  "bytecode": "0x608060405234801561001057600080fd5b50610b76806100206000396000f3fe608060405260043610610062576000357c0100000000000000000000000000000000000000000000000000000000900463ffffffff1680634adc5fa31461006757806366d8c0de146100a2578063ebbbb9991461011d578063f340fa01146101ae575b600080fd5b34801561007357600080fd5b506100a06004803603602081101561008a57600080fd5b81019080803590602001909291905050506101ff565b005b3480156100ae57600080fd5b506100db600480360360208110156100c557600080fd5b81019080803590602001909291905050506102ae565b604051808273ffffffffffffffffffffffffffffffffffffffff1673ffffffffffffffffffffffffffffffffffffffff16815260200191505060405180910390f35b34801561012957600080fd5b5061016c6004803603602081101561014057600080fd5b81019080803573ffffffffffffffffffffffffffffffffffffffff1690602001909291905050506102ec565b604051808273ffffffffffffffffffffffffffffffffffffffff1673ffffffffffffffffffffffffffffffffffffffff16815260200191505060405180910390f35b3480156101ba57600080fd5b506101fd600480360360208110156101d157600080fd5b81019080803573ffffffffffffffffffffffffffffffffffffffff16906020019092919050505061031f565b005b80610208610505565b80828152602001915050604051809103906000f08015801561022e573d6000803e3d6000fd5b506000803373ffffffffffffffffffffffffffffffffffffffff1673ffffffffffffffffffffffffffffffffffffffff16815260200190815260200160002060006101000a81548173ffffffffffffffffffffffffffffffffffffffff021916908373ffffffffffffffffffffffffffffffffffffffff16021790555050565b6001818154811015156102bd57fe5b906000526020600020016000915054906101000a900473ffffffffffffffffffffffffffffffffffffffff1681565b60006020528060005260406000206000915054906101000a900473ffffffffffffffffffffffffffffffffffffffff1681565b60008060008373ffffffffffffffffffffffffffffffffffffffff1673ffffffffffffffffffffffffffffffffffffffff16815260200190815260200160002060009054906101000a900473ffffffffffffffffffffffffffffffffffffffff1673ffffffffffffffffffffffffffffffffffffffff1663401938836040518163ffffffff167c010000000000000000000000000000000000000000000000000000000002815260040160206040518083038186803b1580156103e157600080fd5b505afa1580156103f5573d6000803e3d6000fd5b505050506040513d602081101561040b57600080fd5b810190808051906020019092919050505011151561042857600080fd5b6000808273ffffffffffffffffffffffffffffffffffffffff1673ffffffffffffffffffffffffffffffffffffffff16815260200190815260200160002060009054906101000a900473ffffffffffffffffffffffffffffffffffffffff1673ffffffffffffffffffffffffffffffffffffffff1663d0e30db06040518163ffffffff167c0100000000000000000000000000000000000000000000000000000000028152600401600060405180830381600087803b1580156104ea57600080fd5b505af11580156104fe573d6000803e3d6000fd5b5050505050565b604051610635806105168339019056fe608060405234801561001057600080fd5b506040516020806106358339810180604052602081101561003057600080fd5b810190808051906020019092919050505060008111151561005057600080fd5b33600160006101000a81548173ffffffffffffffffffffffffffffffffffffffff021916908373ffffffffffffffffffffffffffffffffffffffff160217905550806002819055505061058d806100a86000396000f3fe608060405260043610610078576000357c0100000000000000000000000000000000000000000000000000000000900463ffffffff168063401938831461007d57806351cff8d9146100a85780638da5cb5b146100f9578063bc677b4614610150578063d0e30db0146101a7578063f7260d3e146101b1575b600080fd5b34801561008957600080fd5b50610092610208565b6040518082815260200191505060405180910390f35b3480156100b457600080fd5b506100f7600480360360208110156100cb57600080fd5b81019080803573ffffffffffffffffffffffffffffffffffffffff16906020019092919050505061020e565b005b34801561010557600080fd5b5061010e610472565b604051808273ffffffffffffffffffffffffffffffffffffffff1673ffffffffffffffffffffffffffffffffffffffff16815260200191505060405180910390f35b34801561015c57600080fd5b50610165610498565b604051808273ffffffffffffffffffffffffffffffffffffffff1673ffffffffffffffffffffffffffffffffffffffff16815260200191505060405180910390f35b6101af6104c2565b005b3480156101bd57600080fd5b506101c661053c565b604051808273ffffffffffffffffffffffffffffffffffffffff1673ffffffffffffffffffffffffffffffffffffffff16815260200191505060405180910390f35b60025481565b600160009054906101000a900473ffffffffffffffffffffffffffffffffffffffff1673ffffffffffffffffffffffffffffffffffffffff163373ffffffffffffffffffffffffffffffffffffffff161415156102f9576040517f08c379a000000000000000000000000000000000000000000000000000000000815260040180806020018281038252602b8152602001807f53656e646572206973206e6f7420746865206f776e6572206f6620746869732081526020017f70696767792062616e6b2e00000000000000000000000000000000000000000081525060400191505060405180910390fd5b6002543073ffffffffffffffffffffffffffffffffffffffff1631101515156103b0576040517f08c379a00000000000000000000000000000000000000000000000000000000081526004018080602001828103825260238152602001807f596f752068617665206e6f74207265616368656420796f757220676f616c207981526020017f65742e000000000000000000000000000000000000000000000000000000000081525060400191505060405180910390fd5b806000806101000a81548173ffffffffffffffffffffffffffffffffffffffff021916908373ffffffffffffffffffffffffffffffffffffffff1602179055506000809054906101000a900473ffffffffffffffffffffffffffffffffffffffff1673ffffffffffffffffffffffffffffffffffffffff166108fc3073ffffffffffffffffffffffffffffffffffffffff16319081150290604051600060405180830381858888f1935050505015801561046e573d6000803e3d6000fd5b5050565b600160009054906101000a900473ffffffffffffffffffffffffffffffffffffffff1681565b6000600160009054906101000a900473ffffffffffffffffffffffffffffffffffffffff16905090565b60003411151561053a576040517f08c379a00000000000000000000000000000000000000000000000000000000081526004018080602001828103825260158152602001807f596f752063616e6e6f74206465706f73697420302e000000000000000000000081525060200191505060405180910390fd5b565b6000809054906101000a900473ffffffffffffffffffffffffffffffffffffffff168156fea165627a7a7230582032e5ff9f20072de1591a2d871ba20869e56e4511ab2df877ce75c7a32d4551300029a165627a7a72305820766e8b4f82d85e29789126ad3d0ffc8258f9806e44550369f8d8f91d8e0492750029",
  "source": "pragma solidity ^0.5.0;\n\ncontract PiggyBankFactory {\n    mapping(address => PiggyBank) public existingPiggyBanks;\n\n    address[] public deployedPiggyBanks;\n\n    function createPiggyBank(uint _goal) public {\n\n        existingPiggyBanks[address(msg.sender)] = new PiggyBank(_goal);\n    }\n\n    function deposit(address _to) public {\n        require(existingPiggyBanks[_to].goal() > 0); // requires _to to have a piggy bank.\n        existingPiggyBanks[_to].deposit();\n    }\n\n    //    function getDeployedPiggyBanks() public view returns(address[] memory){\n    //        return deployedPiggyBanks;\n    //    }\n}\n\ncontract PiggyBank {\n\n    address payable public receiver;\n    address public owner;\n\n    uint public goal;\n\n    constructor(uint _goal) public {\n        require(_goal > 0);\n        owner = msg.sender;\n        goal = _goal;\n    }\n\n    function deposit() external payable {\n        require(msg.value > 0, \"You cannot deposit 0.\");\n    }\n\n    function viewOwner() external view returns (address) {\n        return (owner);\n    }\n\n    function withdraw(address payable _receiver) external {\n        require(msg.sender == owner, \"Sender is not the owner of this piggy bank.\");\n        require(address(this).balance >= goal, \"You have not reached your goal yet.\");\n        receiver = _receiver;\n        receiver.transfer(address(this).balance);\n    }\n}\n",
  "sourcePath": "/Users/kelvinfan/Projects/blockchain/decentral-bank/contract/contracts/PiggyBank.sol",
  "compiler": {
    "name": "solc",
    "version": "0.5.0+commit.1d4f565a.Emscripten.clang"
  },
  "schemaVersion": "3.0.0",
  "updatedAt": "2019-02-23T22:07:18.677Z",
  "devdoc": {
    "methods": {}
  },
  "userdoc": {
    "methods": {}
  }
}