{
  "contractName": "PiggyBank",
  "abi": [
    {
      "constant": true,
      "inputs": [],
      "name": "approver",
      "outputs": [
        {
          "name": "",
          "type": "address"
        }
      ],
      "payable": false,
      "stateMutability": "view",
      "type": "function",
      "signature": "0x141a8dd8"
    },
    {
      "constant": true,
      "inputs": [],
      "name": "sender",
      "outputs": [
        {
          "name": "",
          "type": "address"
        }
      ],
      "payable": false,
      "stateMutability": "view",
      "type": "function",
      "signature": "0x67e404ce"
    },
    {
      "constant": true,
      "inputs": [],
      "name": "receiver",
      "outputs": [
        {
          "name": "",
          "type": "address"
        }
      ],
      "payable": false,
      "stateMutability": "view",
      "type": "function",
      "signature": "0xf7260d3e"
    },
    {
      "constant": false,
      "inputs": [
        {
          "name": "_receiver",
          "type": "address"
        }
      ],
      "name": "deposit",
      "outputs": [],
      "payable": true,
      "stateMutability": "payable",
      "type": "function",
      "signature": "0xf340fa01"
    },
    {
      "constant": true,
      "inputs": [],
      "name": "viewApprover",
      "outputs": [
        {
          "name": "",
          "type": "address"
        }
      ],
      "payable": false,
      "stateMutability": "pure",
      "type": "function",
      "signature": "0xd93ce89c"
    },
    {
      "constant": false,
      "inputs": [],
      "name": "withdraw",
      "outputs": [],
      "payable": false,
      "stateMutability": "nonpayable",
      "type": "function",
      "signature": "0x3ccfd60b"
    }
  ],
  "bytecode": "0x608060405234801561001057600080fd5b50610442806100206000396000f3fe608060405260043610610078576000357c0100000000000000000000000000000000000000000000000000000000900463ffffffff168063141a8dd81461007d5780633ccfd60b146100d457806367e404ce146100eb578063d93ce89c14610142578063f340fa0114610199578063f7260d3e146101dd575b600080fd5b34801561008957600080fd5b50610092610234565b604051808273ffffffffffffffffffffffffffffffffffffffff1673ffffffffffffffffffffffffffffffffffffffff16815260200191505060405180910390f35b3480156100e057600080fd5b506100e961024c565b005b3480156100f757600080fd5b5061010061031c565b604051808273ffffffffffffffffffffffffffffffffffffffff1673ffffffffffffffffffffffffffffffffffffffff16815260200191505060405180910390f35b34801561014e57600080fd5b50610157610341565b604051808273ffffffffffffffffffffffffffffffffffffffff1673ffffffffffffffffffffffffffffffffffffffff16815260200191505060405180910390f35b6101db600480360360208110156101af57600080fd5b81019080803573ffffffffffffffffffffffffffffffffffffffff16906020019092919050505061035d565b005b3480156101e957600080fd5b506101f26103f0565b604051808273ffffffffffffffffffffffffffffffffffffffff1673ffffffffffffffffffffffffffffffffffffffff16815260200191505060405180910390f35b73f361d9b30a24ec2f1285c6d0f78c262b32b69c4081565b73f361d9b30a24ec2f1285c6d0f78c262b32b69c4073ffffffffffffffffffffffffffffffffffffffff163373ffffffffffffffffffffffffffffffffffffffff1614151561029a57600080fd5b600160009054906101000a900473ffffffffffffffffffffffffffffffffffffffff1673ffffffffffffffffffffffffffffffffffffffff166108fc3073ffffffffffffffffffffffffffffffffffffffff16319081150290604051600060405180830381858888f19350505050158015610319573d6000803e3d6000fd5b50565b6000809054906101000a900473ffffffffffffffffffffffffffffffffffffffff1681565b600073f361d9b30a24ec2f1285c6d0f78c262b32b69c40905090565b60003411151561036c57600080fd5b336000806101000a81548173ffffffffffffffffffffffffffffffffffffffff021916908373ffffffffffffffffffffffffffffffffffffffff16021790555080600160006101000a81548173ffffffffffffffffffffffffffffffffffffffff021916908373ffffffffffffffffffffffffffffffffffffffff16021790555050565b600160009054906101000a900473ffffffffffffffffffffffffffffffffffffffff168156fea165627a7a723058203e52dbb39ae4a5d95c94cb2994003a2bd531ced01956dd4002b7dc917493d75c0029",
  "source": "pragma solidity ^0.5.0;\n\ncontract PiggyBank {\n\n    address public sender;\n    address payable public receiver;\n    address public constant approver = 0xF361d9B30A24EC2f1285C6D0F78C262b32B69C40;\n\n    function deposit(address payable _receiver) external payable {\n        require(msg.value > 0);\n        sender = msg.sender;\n        receiver = _receiver;\n    }\n\n    function viewApprover() external pure returns(address){\n        return(approver);\n    }\n\n    function withdraw() external {\n        require(msg.sender == approver);\n        receiver.transfer(address(this).balance);\n    }\n}\n",
  "sourcePath": "/Users/kelvinfan/Projects/blockchain/decentral-bank/contracts/PiggyBank.sol",
  "compiler": {
    "name": "solc",
    "version": "0.5.0+commit.1d4f565a.Emscripten.clang"
  },
  "schemaVersion": "3.0.0",
  "updatedAt": "2019-02-21T20:52:20.129Z",
  "devdoc": {
    "methods": {}
  },
  "userdoc": {
    "methods": {}
  }
}